:020000040800F2
:10000000E815002081020008E31800086D180008B8
:10001000E118000869040008F91E0008000000004B
:10002000000000000000000000000000A101000826
:10003000AD04000800000000FD010008811900085F
:100040009B0200089B0200089B0200089B0200081C
:100050009B0200089B0200089B0200089B0200080C
:100060009B0200089B0200089B0200089B020008FC
:100070009B0200089B0200089B0200089B020008EC
:100080009B0200089B0200089B0200080000000081
:100090000000000000000000000000009B020008BB
:1000A0009B020008451A00089B0200089B020008FA
:1000B0009B02000800000000000000009B020008F6
:1000C0009B0200089B0200089B0200089B0200089C
:1000D0009B020008ED1E00089B0200089B0200081E
:1000E0009B0200089B0200080000000000000000C6
:1000F0000000000000000000000000000000000000
:1001000000000000000000000000000000000000EF
:1001100000000000000000009B020008000000003A
:100120009B0200089B0200089B0200089B0200083B
:100130009B0200080000000000000000000000001A
:100140009B0200089B0200089B0200089B0200081B
:100150009B0200089B0200089B0200089B0200080B
:100160009B0200089B020008000000000000000045
:10017000000000009B0200080000000000000000DA
:100180009B020008AF0400089B020008DFF80CD0B7
:1001900000F058F900480047A9250008E81500209C
:1001A0002C4B1968086800F05AB880F30988BFF32F
:1001B0006F8F4FF0000080F311887047000000003F
:1001C00008480068006880F308884FF0000080F35A
:1001D000148862B661B6BFF34F8FBFF36F8F00DF35
:1001E00000BF00BF08ED00E0DFF80C00016841F43B
:1001F00070010160704700BF88ED00E0EFF30980F7
:10020000BFF36F8F134B1A681EF0100F08BF20ED5D
:10021000108A20E9F04F106009B44FF0500080F3CD
:100220001188BFF34F8FBFF36F8F02F0ADFF4FF018
:10023000000080F3118809BC1968086800F014B840
:100240001EF0100F08BF00F014B880F30988BFF348
:100250006F8F704750000020EFF30580704730C863
:10026000B0E8C04FFFF7A1BF30C8B0E8C04FFFF7FC
:10027000E7BFB0EC088AB0EC08CAFFF7E6BF0000A1
:100280000648804706480047FEE7FEE7FEE7FEE730
:10029000FEE7FEE7FEE7FEE7FEE7FEE7011A0008DD
:1002A0008D0100082DE9F05F0546002092469B462F
:1002B00088460646814640241BE02846414647467C
:1002C000224600F0AEF853465A46C01A914110D368
:1002D00011461846224600F095F82D1A67EB0108E2
:1002E0004F4622460120002100F08CF817EB000950
:1002F0004E41201EA4F10104DFDC484631462A4667
:10030000434600F000B830BCBDE8C09F40EA01039E
:100310009B0703D009E008C9121F08C0042AFAD2BB
:1003200003E011F8013B00F8013B521EF9D270477F
:10033000D2B201E000F8012B491EFBD27047002227
:10034000F6E710B513460A4604461946FFF7F0FFD4
:10035000204610BD421E12F8013F002BFBD111F8C0
:10036000013B02F8013B002BF9D1704730B505463F
:100370002A460B4612F8010B13F8014B08B1A042B4
:10038000F8D01CB1002802D06D1CF1E7284630BD22
:10039000034611F8012B00F8012B002AF9D1184669
:1003A000704730B505460020034600E05B1C9342D1
:1003B00005D2EC5CC85C201A01D1002CF6D130BD0E
:1003C00070B50F4D00B92868002412E00A4602E01B
:1003D0009E4203D0521C1378002BF9D1DAB222438B
:1003E00005D02BB124B1002100F8011B04E0044624
:1003F000401C0678002EE9D12860204670BD000020
:1004000090000020202A04DB203A00FA02F10020AC
:1004100070479140C2F1200320FA03F31943904042
:100420007047202A04DB203A21FA02F000217047AD
:1004300021FA02F3D040C2F120029140084319464C
:1004400070470000064C074D06E0E06840F00103ED
:1004500094E8070098471034AC42F6D3FFF79AFEB1
:10046000F03C0008103D0008FEE7000010B50A4A05
:1004700000214FF49673445C4F2C03D144186478E8
:100480004B2C06D005A4491C14609942F3DB20468E
:1004900010BD04A0106010BD0000002066616C73E8
:1004A00065000000747275650000000070477047B9
:1004B00010B590F825100024022903D00421C1634F
:1004C00001241AE001680A6822F00E020A6001683D
:1004D0000A6822F001020A6090F84410036C01F0EF
:1004E0001C02012101FA02F25A6080F82510002155
:1004F00080F82410816B01B18847204610BD70B58B
:10050000044600F0D3F80546601C00D0641C00F0DF
:10051000CDF8401BA042FAD370BD00002DE9F84F82
:10052000DFF860B100234FF0010C4FF0030A4FF0E9
:100530000F090BF1040E9DE00CFA03F63440220083
:100540007ED04C68022C01D0122C0ED1DC0800EBBE
:100550008408D8F820405D07EF0E09FA07F5AC4390
:100560000D69BD402543C8F8205007685D0091F82B
:1005700004800AFA05F408F00308A74308FA05F80E
:1005800048EA0708C0F800804F68012F05D0022F05
:1005900003D0112F01D0122F11D18768D1F80C8010
:1005A000A74308FA05F848EA0708C0F80880476832
:1005B000B7430E79C6F300169E403E434660C668B8
:1005C000A6438C68AC403443C4604C68E40050D50A
:1005D0002D4C256E45F001052566246E23F003059C
:1005E00004F001040094294C2E19B4689D072F0FC4
:1005F00009FA07F5AC43B0F1904F04D0244DA8425E
:1006000003D101250CE000250AE0224DA84201D1CA
:10061000022505E0204DA84201D1032500E0072571
:10062000BD402543B560DBF800405D464E6894430D
:10063000F60300D514432C607546DEF8004000E058
:1006400017E04E689443B60300D514432C600D4D5B
:1006500008352C684E689443F60200D514432C608C
:10066000084D0C352C684E689443B60200D51443EF
:100670002C605B1C0A681446DA407FF45DAF00F022
:100680000DB80000000401400010024000000140CD
:100690000004004800080048000C004818BCBDE8F1
:1006A000E08F0AB18161704781627047014800683C
:1006B000704700002400002002480168491C0160C6
:1006C000704700002400002010B50024032000F033
:1006D000B9F8002000F008F808B1012401E000F0AA
:1006E0003DF8204610BD000000B5014687B000224D
:1006F000192000F087F8192000F078F81348016EEF
:1007000041F400310166006E05A900F40030069046
:10071000684600F069FA00F09FFA0D490D4AB0FBF7
:10072000F1F10D48491E0260416040F2E7320021BC
:10073000C0E90321816000F0A6FD10B1012007B0DF
:1007400000BD054800F0BCFDF9E7000000100240C4
:1007500040420F000044014000050020224808B537
:10076000016E41F001010166016E01F0010100918D
:10077000816D41F080518165806D00F08050009066
:10078000032000F05FF8002211466FF00B0000F02C
:1007900039F8002211466FF00A0000F033F8002209
:1007A00011466FF0090000F02DF800221146501F8D
:1007B00000F028F800221146101F00F023F8002254
:1007C0000F21901E00F01EF800220F21501E00F095
:1007D00019F800220521512000F014F8BDE8084066
:1007E000512000F003B800000010024000F01F028A
:1007F000012191404009800000F1E020C0F8001183
:1008000070470000F0B40E4B1B680C46C3F3022384
:10081000C3F10705042D00D90425191D072901D2AC
:10082000002300E0DB1E012606FA05F1491E2140E7
:1008300099409E40761E16403143F0BC01F052B8FC
:100840000CED00E0064900F0070208684FF6FF03D0
:10085000184040EA0220034A104308607047000035
:100860000CED00E00000FA051649B0F5007F0868BD
:10087000C0F3412009D0022805D0086820F4C060E8
:1008800040F480600860002070470128FBD00868B1
:1008900020F4C06040F4007008600B483222006809
:1008A00050430A4AB0FBF2F0401C00E0401E4A6987
:1008B000520501D50028F9D148694005E3D5032048
:1008C00070470000007000402800002040420F00E8
:1008D0000248006800F4C0607047000000700040EB
:1008E0002DE9F843044600680026774D80035ED565
:1008F000A86D0027C00008D4A86D40F08050A865FE
:10090000A86D012700F080500090DFF8C091D9F861
:10091000001041F48071C9F80010FFF7C7FE80464F
:1009200006E000BFFFF7C2FEA0EB080002282BD8AC
:10093000D9F80000C005F5D5D5F8900010F4407046
:1009400014D0216B814211D0D5F89000D5F89010C9
:1009500020F4407041F48031C5F89010D5F8901023
:1009600021F48031C5F89010C5F89000C00711D06F
:10097000FFF79CFE804641F2883907E0FFF796FEBC
:10098000A0EB0801494501D903260BE0D5F89000FA
:100990008007F3D5D5F89000216B20F44070084310
:1009A000C5F890001FB1A86D20F08050A865207890
:1009B000C00707D0D5F88800616820F0030008431D
:1009C000C5F888002078800707D5D5F88800A16889
:1009D00020F00C000843C5F888002078400707D5B0
:1009E000D5F88800E16820F030000843C5F8880099
:1009F0002078800607D5D5F88800216920F440606A
:100A00000843C5F888002088800507D5D5F88800F8
:100A1000216A20F440200843C5F88800208840055A
:100A200007D5D5F88800616A20F440100843C5F85E
:100A300088002078400607D5D5F88800616920F441
:100A400040500843C5F888002078000607D5D5F83F
:100A50008800A16920F440400843C5F88800208838
:100A6000C00507D5D5F88800E16920F44030084377
:100A7000C5F8880020884FF0006180040ED5D5F8B5
:100A80008800A26A20F040601043C5F88800A06A80
:100A9000884203D1E86840F48010E8602068400391
:100AA0000ED5D5F88800E26A20F040601043C5F802
:100AB0008800E06A884203D1E86840F48010E8606A
:100AC0003046BDE8F883000000100240007000408E
:100AD0002DE9F0470F46050058D03F4E306800F032
:100AE0000700B84209D2306820F007003843306070
:100AF000306800F00700B84248D12878374CC0076A
:100B00002CD06868032811D0022812D0216898B12F
:100B1000490500293ADAA16821F003010143A160E7
:100B2000FFF7C4FD804641F2883910E02168890151
:100B3000EFE721688903ECE78907EAE7FFF7B6FDED
:100B4000A0EB0801494502D90320BDE8F087A06861
:100B5000696800F00C00B0EB810FEFD128788007B6
:100B600005D5A068A96820F0F0000843A0603068AF
:100B700000F00700B8420BD9306820F00700384376
:100B80003060306800F00700B84201D00120DCE797
:100B90002878400705D5A068E96820F4E06008439C
:100BA000A0602878000706D5A068296920F4605065
:100BB00040EAC100A06000F061F8A168084AC1F3F2
:100BC0000311515C01F01F01C84006490860BDE8EF
:100BD000F0470020FFF788BD0020024000100240CF
:100BE000343C0008280000200F2202600C4A936861
:100BF00003F003034360936803F0F003836093689A
:100C000003F4E063C36092684FF4E06303EAD20246
:100C100002610448006800F00700086070470000A7
:100C200000100240002002400148006870470000A8
:100C3000280000200548064900688968054AC1F374
:100C40000221515C01F01F01C840704728000020BC
:100C500000100240743C0008054806490068896895
:100C6000054AC1F3C221515C01F01F01C840704721
:100C70002800002000100240743C000870B525498F
:100C8000002318468A68CC6812F00C0204F00306B0
:100C9000214C4FEA640509D00C2A05D0042A26D03D
:100CA000082A00D1284670BD012E10D10B681B0701
:100CB00004D4D1F89430C3F3032302E00B68C3F3E8
:100CC0000313164E56F823307AB10C2AEBD1C868BC
:100CD00000F00302C868C0F30210401C022A08D0CA
:100CE000032A09D0B3FBF0F008E0184670BD204697
:100CF00070BDB4FBF0F001E0B5FBF0F0CA68C96864
:100D0000C2F306225043C1F34161491C4900B0FBC4
:100D1000F1F070BD001002400024F400443C0008D3
:100D20002DE9F84305007CD0FE4CA06800F00C06CD
:100D3000E06800F003072878C00662D576B10C2E73
:100D400001D1012F0AD0E8690028206878D040F04E
:100D500001002060FFF7AAFC804659E02068800768
:100D600002D5E8690028DED0696A2068000703D54B
:100D7000206800F0F00004E0D4F89400F02202EAC9
:100D80001010814216D9084600F0BCFD002848D159
:100D9000206840F0080020602068696A20F0F000B8
:100DA000084320606068296A20F47F4040EA0120FF
:100DB000606015E0206840F0080020602068696AE3
:100DC00020F0F000084320606068296A20F47F402A
:100DD00040EA01206060686A00F094FD0028D6D1E6
:100DE000FFF74CFFA168D04AC1F30311515C01F039
:100DF0001F01C840CD4908600020FFF775FC00289E
:100E00007ED12EE0FFF752FCA0EB0800022878D834
:100E100020688007F6D5206840F008002060206830
:100E200001E0B5E00CE0696A20F0F00008432060C2
:100E30006068296A20F47F4040EA0120606010E089
:100E400020F001002060FFF731FC804606E000BF83
:100E5000FFF72CFCA0EB08000228D8D820688007F8
:100E6000F6D42878C00740D0082E18D00C2E01D117
:100E7000032F14D06868B0F5803F17D0B0F5A02FCD
:100E8000206817D020F480302060206820F4802073
:100E900020606868E0B1FFF709FC804614E0206834
:100EA000800322D56868002872D01EE0206840F4D4
:100EB0008030EDE740F480202060F7E7FFF7F6FB95
:100EC000A0EB08006428A2D820688003F6D50CE0C7
:100ED000FFF7ECFB804605E0FFF7E8FBA0EB08001E
:100EE000642894D820688003F6D4287880073BD5FE
:100EF000042E11D00C2E01D1022F0DD0E86801E094
:100F000092E1EAE0002820681ED040F48070206062
:100F1000FFF7CCFB07460CE0206840050CD5E868DD
:100F20000028C1D008E000BFFFF7C0FBC01B0228AB
:100F300093D820684005F7D56068297C20F0FE40F2
:100F400040EA016060600FE020F480702060FFF7ED
:100F5000ADFB074605E000BFFFF7A8FBC01B02285A
:100F6000B1D820684005F7D42878000753D56869C0
:100F70000028D4F894003DD0A96900F010029142F5
:100F800023D081074FEAC07003D500288CD001E040
:100F900051E190B1D4F8940020F00100C4F894001D
:100FA000FFF784FB074604E0FFF780FBC01B112816
:100FB00089D8D4F894008007F6D4D4F89400A969AD
:100FC00020F010000843C4F89400D4F8940040F0D6
:100FD0000100C4F89400FFF769FB074605E000BF75
:100FE000FFF764FBC01B112877D8D4F89400800762
:100FF000F6D510E020F00100C4F89400FFF756FB8E
:10100000074604E0FFF752FBC01B112865D8D4F84F
:1010100094008007F6D42878400778D5A06D002783
:10102000C00008D4A06D40F08050A065A06D0127DD
:1010300000F0805000903E480168C90512D4016854
:10104000814641F480710160FFF730FB804605E086
:10105000FFF72CFBA0EB080002283ED8D9F80000CF
:10106000C005F5D5A868C10720D0D4F8901000F0CD
:10107000800021F080010143C4F89010287A4007D5
:1010800005D5D4F8900040F00400C4F89000D4F8DE
:10109000900040F0010000BFC4F89000A86841F241
:1010A0008839D8B1FFF702FB804611E0D4F89000F0
:1010B00020F00100C4F89000D4F8900020F0040063
:1010C000EAE700BFFFF7F2FAA0EB0801494504D8B0
:1010D000D4F890008007F5D514E087E0FFF7E6FA32
:1010E000804605E0FFF7E2FAA0EB080149457DD80C
:1010F000D4F890008007F5D4D4F8900020F0800058
:10110000C4F890001FB1A06D20F08050A065287831
:10111000800630D5A86A0028D4F898001AD040F08C
:10112000010007E000100240343C000828000020C5
:1011300000700040C4F89800FFF7B8FA074604E0D2
:10114000FFF7B4FAC01B02286DD8D4F898008007C6
:10115000F6D510E020F00100C4F89800FFF7A6FAD9
:10116000074604E0FFF7A2FAC01B02285BD8D4F8B8
:1011700098008007F6D4E86AC8B30C2E5BD002282A
:10118000206820F0807020600BD0E06820F0030021
:10119000E060E06820F08870E060FFF787FA0546BD
:1011A00044E0FFF783FA064605E000BFFFF77EFA4A
:1011B000801B022837D820688001F7D4686B296B20
:1011C000000110380843A98F1C4A490802EB41511D
:1011D000AA6B41EA0221084395F840104FF07E4285
:1011E000490802EB41610843E06001E01BE020E0B8
:1011F000206840F080702060E06840F08070E0601F
:10120000FFF754FA054604E0FFF750FA401B0228A6
:1012100009D820688001F7D50BE000BFFFF746FA38
:10122000401B022802D90320BDE8F8832068800112
:10123000F4D40020F8E70120F6E700000000E0FF0A
:101240004FF0E0210428086903D020F00400086171
:10125000704740F00400FAE710B5401EB0F1807FFF
:1012600001D3012010BD4FF0E02460610F21601711
:1012700000F038FB0020A06107202061002010BD95
:1012800070477047704710B5040003D094F83D00D4
:1012900010B107E0012010BD002084F83C0020467A
:1012A00000F00CF8022084F83D00211D206800F0B9
:1012B000CFFB012084F83D00002010BD70470000E6
:1012C0000168CA6842F00102CA6000688268074982
:1012D0000A40062A08D082680A40B2F5803F03D04F
:1012E000016841F001010160002070470700010022
:1012F000704770B50446006801694FF00005C943A6
:10130000890715D4C168C943890711D4E91E016151
:1013100001202077206880698007204602D0FFF7EF
:10132000E7FF04E000F0A7F8204600F0A5F82577D5
:1013300020680169C943490717D4C168C9434907EF
:1013400013D46FF0040101610220207720688069C6
:1013500010F4407F204602D0FFF7CAFF04E000F0FF
:101360008AF8204600F088F8257720680169C9438B
:10137000090716D4C168C943090712D46FF00801E0
:101380000161042020772068C0698007204602D0D0
:10139000FFF7AEFF04E000F06EF8204600F06CF8B6
:1013A000257720680169C943C90617D4C168C943B4
:1013B000C90613D46FF0100101610820207720685E
:1013C000C06910F4407F204602D0FFF791FF04E08F
:1013D00000F051F8204600F04FF8257720680169A9
:1013E000C943C90708D1C168C943C90704D1891EC7
:1013F0000161204600F042F820680169C9430906EE
:1014000009D4C168C943090605D46FF080010161A0
:101410002046FFF736FF20680169C943C90509D492
:10142000C168C943090605D46FF480710161204683
:10143000FFF726FF20680169C943490609D4C1683E
:10144000C943490605D46FF040010161204600F010
:101450001FF820680169C94389060BD4C168C943D4
:10146000890607D46FF0200101612046BDE8704075
:10147000FFF708BF70BD7047704700000068034960
:10148000884201D1FFF718B97047000000440140BD
:1014900070477047704700002DE9F041026804462C
:1014A000D0691168936810F00F0F4FF000055BD002
:1014B00003F0010601F49077374369D0C70707D0DE
:1014C000CF0505D501271762626F42F001026267FE
:1014D000820708D5DA0706D0276802223A62626FCF
:1014E00042F004026267420708D5DA0706D0236893
:1014F00004221A62626F42F00202626702070AD592
:1015000001F02002324306D0236808221A62626F7B
:1015100042F008026267626F002A32D0800605D569
:10152000880603D5216E09B120468847606F000701
:1015300003D420688068400625D5204600F06AFB69
:1015400020688168490619D5816821F040018160D1
:10155000E06E98B120498163E06EFEF7A9FF002894
:101560000FD0E06E816B06E0860611D58E060FD592
:10157000216E1EE02046BDE8F04108472046FFF7F7
:1015800089FFBDE8F0812046FFF784FF6567F8E733
:10159000C60209D55B0207D54FF4801010622046C1
:1015A000BDE8F041FFF775BF030605D50B0603D56F
:1015B000616E0029DED1E4E74006E2D54806E0D5B9
:1015C0001168204621F040011160202184F871103B
:1015D000656600F04AF9D4E7011C000810B5040064
:1015E00003D094F8710010B107E0012010BD002075
:1015F00084F87000204600F027F8242084F8710059
:101600002068016821F001010160204600F012FB12
:101610000128EBD0606A10B1204600F05FFA206824
:10162000416821F4904141602068816821F02A01DD
:1016300081602068016841F0010101602046BDE839
:10164000104000F0AFBA0000F0B51E4F066800224F
:101650001D4902230324072587B04FF09040BE4266
:101660001AD10E6E46F480460E66096E02AE01F483
:10167000804105916102CDE9001386E83400694696
:10168000FEF74CFF002205212520FFF7BBF825209F
:10169000FFF7ACF807B0F0BD0C4FBE42FAD18E6D2B
:1016A00046F400368E65896D02AE01F40031059175
:1016B0000C21CDE9001386E834006946FEF72EFFC1
:1016C000E8E70000003801400010024000440040FC
:1016D0002DE9F84F044690F872009A4616460D46DA
:1016E000202865D1EDB1E6B194F8700001285FD0F3
:1016F000012084F8700000276767222084F87200B8
:101700005434FEF7D3FFA6808146E68054F84C0C93
:101710004FF48058FF21543C404508D1206918B14E
:101720000DE0012000F046B840F2FF100DE07F22EE
:1017300018B1B0F1805F05D009E0206950B9A4F874
:101740005C1004E0206928B13F20A4F85C00B4F8E4
:101750005C601CE0A4F85C20F9E74B4600222021E5
:101760002046CDF800A000F08FFB08B10320D9E798
:10177000A068404501D12069A0B12068808C30402C
:1017800005F8010BB4F85A00401EA4F85A00B4F84A
:101790005A000028E1D1202084F8720084F870708B
:1017A0000020BFE72068808C304025F8020BE9E775
:1017B0000220B7E718BCBDE8E08F2DE9F8430446E6
:1017C00090F871001F4616460D4620284BD1C5B132
:1017D000BEB194F87000012845D0012084F8700053
:1017E0004FF00008C4F87480212084F87100FEF7DF
:1017F0005DFFA4F850608146A4F852604FF4805613
:1018000015E00120BDE8F8838021204600F03CFB74
:10181000D8B9A068B04201D12069C0B115F8010B58
:1018200021680885B4F85200401EA4F85200B4F8AC
:1018300052004B464FF0000200970028E4D14FF0D1
:101840004001204600F020FB30B10320DAE735F8F4
:10185000020BC0F30800E3E7202084F8710084F84D
:1018600070800020CEE70220CCE77047FEE7000042
:101870000C4810B50A4901604FF4E1314160002184
:1018800081600C22C160C0E904128161C161016202
:101890004162FFF7A3FE002800D0FEE710BD000064
:1018A00000380140940000200C4810B50A4901603E
:1018B0004FF4E1314160002181600C22C160C0E938
:1018C00004128161C16101624162FFF787FE002855
:1018D00000D0FEE710BD0000004400400C010020D5
:1018E000FEE770470907090E002806DA00F00F002E
:1018F00000F1E02080F8141D704700F1E02080F82E
:1019000000147047F8B51C4D06460024A86DC000B1
:1019100002D5FEF7DDFF0DE0A86D40F08050A86510
:10192000A86D00F080500090FEF7D2FFA96D21F065
:101930008051A965B0F5007F04D0802E07D94FF003
:1019400003040AE0802E08D9A02E01D804E001D1BA
:10195000022402E0702E00D101240848016821F021
:10196000070121430160006800F00700A04201D098
:101970000120F8BD0020F8BD001002400020024008
:1019800000F083BE10B5A4B04FF40070FEF76CFFFA
:1019900000B1FEE71020009001200024CDE90704EB
:1019A000602009900B946846FFF7BAF900B1FEE792
:1019B0000F20CDE91E042094219400211EA822941A
:1019C000FFF786F800B1FEE70320CDE9110411A866
:1019D0001394FEF785FF00B1FEE7FFF725F94FF4FA
:1019E0007A71B0FBF1F0FFF737FC0420FFF728FC19
:1019F00000220F21501EFEF705FF24B010BD00008D
:101A00000D48016841F4700101600C48016841F023
:101A100001010160002181600268094B1A400260E7
:101A20008214C260026822F480220260816102494D
:101A3000C00380390860704788ED00E00010024064
:101A4000FFFFF6EA0148FFF754BC00000005002044
:101A500070B50268164B4FF08046984201D0B042F4
:101A600003D122F070044A682243124C124D98426E
:101A700005D0B04203D0A04201D0A84203D122F445
:101A80004076CA6832434E6922F0800232430260D7
:101A90008A68C2620A688262984203D0A04201D07A
:101AA000A84201D1096901630121416170BD0000B3
:101AB000002C01400040014000440140FFF7D8FEE7
:101AC00001F088F90A2000F0D1FDF7E7FFF7D0FE1A
:101AD00000F0E0FC0A2000F0C9FDF7E790F82410C0
:101AE000C90706D001684A68836A22F400321A43A3
:101AF0004A6090F82410890706D501684A68C36ACD
:101B000022F480321A434A6090F82410490706D51F
:101B100001684A68036B22F480221A434A6090F8F5
:101B20002410090706D501684A68436B22F4004275
:101B30001A434A6090F82410C90606D501688A68DD
:101B4000836B22F480521A438A6090F8241089062D
:101B500006D501688A68C36B22F400521A438A6072
:101B600090F82410490611D501684A68036C22F4E4
:101B700080121A434A60016CB1F5801F06D10168DA
:101B80004A68436C22F4C0021A434A6090F8241059
:101B9000090606D501684A68806C22F400220243D7
:101BA0004A607047F8B5002604464667FEF77EFD9A
:101BB0000546206800686FF07E47000708D52B4671
:101BC00000224FF400112046009700F05DF960B943
:101BD0002068006840070AD52B4600224FF4800198
:101BE0002046009700F050F908B10320F8BD2020EE
:101BF00084F8710084F8720084F870600020F8BDE9
:101C000010B5806A0021A0F85A10A0F85210FFF712
:101C100041FC10BD01680A6822F490720A600168F4
:101C20008A6822F001028A60202180F87210002167
:101C3000016670472DE9F041044601688068236918
:101C4000E669184363691025002733431843844A23
:101C50000B68844E334003430B6020684168E3689F
:101C600021F44051194341602168A069914201D09B
:101C7000236A18438B6823F4306303438B607A4BE9
:101C800021687A4899420DD1D0F8880010F00300FD
:101C900006D0012839D0022835D0032838D136E0C3
:101CA000012535E0724B99420BD1D0F8880010F035
:101CB0000C0026D0042828D0082824D00C2827D1AE
:101CC00025E06C4B99420BD1D0F8880010F0300021
:101CD00017D0102819D0202815D0302818D116E098
:101CE000914215D1D0F8880010F4406009D0B0F5C9
:101CF000806F0AD0B0F5006F05D0B0F5406F07D106
:101D000005E0002504E0022502E0042500E00825A6
:101D1000594B00264FF4004091423DD135B1022D80
:101D200007D0042D07D0082D10D107E0FEF782FF61
:101D300003E0184602E0FEF7A1FFA8B3626802EBD9
:101D40004201814202D8B0EB023F01D9012774E081
:101D5000DFF828815DB1022D0CD0042D13D0082DA1
:101D6000F4D150082905401846F1000105E0FEF7BE
:101D700061FF0AE050084249F5E70023FEF792FAB6
:101D8000A0F5407155E0FEF779FF6268010E03028D
:101D9000500818187141F0E7E1694FF6EF78814279
:101DA0002ED1092DD2D200E047E0DFE805F0060988
:101DB0001F05220505052500C8E7FEF73BFF01E0EA
:101DC000FEF74AFF4100606801EB5001B1FBF0F003
:101DD00080B2A0F110014145B8D84FF6F071014032
:101DE000C0F3420001432068C16026E025496068D5
:101DF000EAE7FEF743FFE5E74FF480316068E3E789
:101E0000092DA3D2DFE805F006091E052205050508
:101E100025009BE7FEF70EFF01E0FEF71DFF0146E0
:101E2000606801EB500100BFB1FBF0F080B2A0F19F
:101E3000100141458AD82168C86026663846666622
:101E4000BDE8F081606803EB5001EDE7FEF716FF97
:101E5000E5E7616800EB5100B0FBF1F0E6E7000058
:101E600000800040F369FFEF00380140001002409D
:101E700000440040004800400024F400FFFC0F0034
:101E8000000024F40048E8012DE9F0419846174687
:101E90000E460446069D1DE0681C1BD02DB1FEF7C2
:101EA00005FCA0EB0800A84214D92068016821F4C1
:101EB000D07101602068816821F0010181602020DB
:101EC00084F8710084F87200002084F87000032008
:101ED000BDE8F0812068C06936EA000004D0002027
:101EE000B842D9D00020F3E70120F9E70148FFF715
:101EF000D3BA000094000020FEE702E008C8121FD9
:101F000008C1002AFAD170477047002001E001C1E2
:101F1000121F002AFBD170472DE9F047FDA4FE49AE
:101F2000FE48FEF735FA2146FC48FEF713FAFCA1FD
:101F3000FA48FEF70FFA0026FA4C4FF49675771E12
:101F40002946F948FEF7FBF93946E06801F004FB41
:101F5000F5480A230522F549F038FFF72EFCF2492F
:101F60000A232A46A1F1F000FFF7B2FB00231A462C
:101F70001946E06801F040FAEB48FEF777FA0522CF
:101F8000EBA12062FEF70DFA10B1761C0A2ED7DB0A
:101F900000262946E448FEF7D2F93946E06801F008
:101FA000DBFAE249E0480A230B22491DF038FFF72B
:101FB00004FCDD490A232A46A1F1F000FFF788FB63
:101FC00000231A461946E06801F016FAD648FEF7D3
:101FD0004DFA0522D6A12062FEF7E3F910B1761C76
:101FE0000A2ED6DB00262946CF48FEF7A8F9394647
:101FF000E06801F0B1FACD49CB480A232022103124
:10200000F038FFF7DAFBC8490A232A46A1F1F000AD
:10201000FFF75EFB00231A461946E06801F0ECF971
:10202000C148FEF723FA0522C1A12062FEF7B9F9E3
:1020300010B1761C0A2ED6DB00262946BA48FEF7D8
:102040007EF93946E06801F087FAB849B6480A23B4
:1020500020223031F038FFF7B0FBB3490A232A467B
:10206000A1F1F000FFF734FB00231A461946E0689F
:1020700001F0C2F9AC48FEF7F9F90522ACA12062E3
:10208000FEF78FF910B1761C0A2ED6DB0026294602
:10209000A548FEF754F93946E06801F05DFAA34916
:1020A000A1480A2320225031F038FFF786FB9E49D1
:1020B0000A232A46A1F1F000FFF70AFB00231A4683
:1020C0001946E06801F098F99748FEF7CFF9052224
:1020D00097A12062FEF765F910B1761C0A2ED6DBB7
:1020E000002629469048FEF72AF93946E06801F0B3
:1020F00033FA8E498C480A231F227031F038FFF7DB
:102100005CFB89490A232A46A1F1F000FFF7E0FAB7
:1021100000231A461946E06801F06EF98248FEF77E
:10212000A5F9052282A12062FEF73BF910B1761CC9
:102130000A2ED6DB00264FF47A7829467A48FEF735
:10214000FEF83946E06801F007FA784976480A2334
:102150000F228F31F038FFF730FB734943462A4690
:10216000A1F1F000FFF7B4FA6F490A232A46A1F162
:102170007800FFF722FB00231A461946E06801F0B9
:102180003BF96948FEF772F9052269A12062FEF762
:1021900008F910B1761C0A2ECFDB002629466248CA
:1021A000FEF7CDF83946E06801F0D6F95F495E48A0
:1021B0000A230F22AD31F038FFF7FFFA5A494346A0
:1021C0002A46A1F1F000FFF783FA57490A232A466D
:1021D000A1F17800FFF7F1FA00231A461946E068EA
:1021E00001F00AF95048FEF741F9052250A120629A
:1021F000FEF7D7F810B1761C0A2ECFDB0026294651
:102200004948FEF79CF83946E06801F0A5F94749CE
:10221000454805230E22BC31F038FFF7CEFA42497B
:1022200005232A46A1F1F000FFF752FA00231A46CF
:102230001946E06801F0E0F83B48FEF717F905227F
:102240003BA12062FEF7ADF810B1761C0A2ED6DB5A
:10225000002629463448FEF772F83946E06801F056
:102260007BF93249304805231622CA31F038FFF78E
:10227000A4FA2D4905232A46A1F1F000FFF728FA18
:1022800000231A461946E06801F0B6F82648FEF722
:10229000EDF8052226A12062FEF783F810B1761C26
:1022A0000A2ED6DB002629461F48FEF748F8394695
:1022B000E06801F051F9194914235A22A1F582600E
:1022C000FFF77BFA184914232A46A1F1F000FFF723
:1022D000FFF900231A461946E06801F08DF812480C
:1022E000FEF7C4F8052212A12062FEF75AF810B1D9
:1022F000761C0A2ED7DB002629460B48FEF71FF86E
:102300003946E06801F028F9084905231222E03136
:10231000054811E04F4E0000883C0008A40400204E
:10232000220D0A000000002084010020E83A000885
:102330007472756500000000F038FFF73EFA5349EB
:1023400005232A46A1F1F000FFF7C2F900231A463F
:102350001946E06801F050F84C48FEF787F805226E
:10236000AFF234012062FEF71CF810B1761C0A2E81
:10237000C2DB002629464548FDF7E1FF3946E06803
:1023800001F0EAF8414805230E224149F038FFF7F1
:1023900014FA3E4905232A46A1F1F000FFF798F907
:1023A00000231A461946E06801F026F83748FEF780
:1023B0005DF80522AFF288012062FDF7F2FF10B14F
:1023C000761C0A2ED6DB002629463048FDF7B7FFDB
:1023D0003946E06801F0C0F82D492C4805230E224B
:1023E0000E31F038FFF7E9F9284932232A46A1F1E6
:1023F000F000FFF76DF900231A461946E06800F077
:10240000FBFF2248FEF732F80522AFF2DC01206222
:10241000FDF7C7FF10B1761C0A2ED5DBB9460026A2
:10242000474629461948FDF78AFF4946E06801F00A
:1024300093F8174915480A230F225439F038FFF74B
:10244000BCF912493B462A46A1F1F000FFF740F9DA
:102450000E490A232A46A1F17800FFF7AEF90023BE
:102460001A461946E06800F0C7FF0848FDF7FEFF6E
:102470000522AFF244112062FDF793FF002802D03D
:10248000761C0A2ECDDBBDE8F08700008401002019
:10249000DA3B000830B5ADB02EA02FA200681C902A
:1024A00007CA19AB002583E8070014222DA11DA837
:1024B000FDF72CFF142230A122A8FDF727FF1422DC
:1024C00032A127A8FDF722FF64216846FDF737FFF8
:1024D000334C691EE06801F03FF805230C2219A96E
:1024E0003048FFF76AF90A23642269462D48FFF74E
:1024F000EFF800231A461946E06800F07DFF00203F
:1025000069462C220A54401C0F28FBDB1CA9684694
:10251000FDF756FF1CA90020FDF752FF6D1CEDB220
:10252000012D0FD0022D0FD0032D0FD0042D0FD071
:10253000032DEFD920690078002801D0FFF7ECFCCB
:102540002DB030BD2061E5E76061E3E7A061E1E720
:10255000E061EFE72C00000041542B43474E534904
:102560004E460D00202020204C617469747564650E
:1025700020203A2000000000202020204C6F6E67B1
:10258000697475646520203A200000000A475053A2
:1025900020496E697469616C697A696E67850A00A1
:1025A000000000209400002092B0FEF78DF8FFF7A5
:1025B000E9F92648C16C41F00101C164C16C01F028
:1025C00001011091C16C41F00201C164C06C204D49
:1025D00000F002001090002208212846FEF761F862
:1025E0000820009001200024CDE901046946284616
:1025F0000394FDF793FFFFF73BF9FFF755F900F060
:10260000FDFA0FA80F9400F03DF8124C1422124965
:10261000E06005A8FDF77AFE002105A800F03FF86C
:102620000D496060142214310AA8FDF76FFE0021E5
:102630000AA800F034F8A06000F01FF800234FF45F
:102640008062194605484FF0FF30FEE70010024057
:102650000004004800000020F83B00088C00002027
:1026600001460020842900D0C81C704710B500B96D
:10267000012000F0ADFC002010BD10B500F048FDB9
:10268000002010BD012000F03DBE10B501F088F81B
:10269000012803D0BDE8104000F01EBE10BD3EB5BD
:1026A00004460D46B0F90800FFF7DAFF02A9CDE9AC
:1026B0000001208A2B4682B2D4E9001001F042F8D2
:1026C000012801D000203EBD02983EBD2DE9F04119
:1026D000184C0F46054666692068001D00F0BEFBD9
:1026E00038B9206890F82C1001208840A1698143F6
:1026F000A161681C07D137B12168BDE8F0410E48DF
:10270000091D00F0E4BB20683544B54245602168EE
:1027100005D2A068BDE8F041091D00F0C0BB6068AB
:10272000091D00F0BCFB206B854200D22563BDE88B
:10273000F081000050000020D41100202DE9F0416C
:10274000054600F0D1FB2E4C2069401C206120681A
:102750002C4F10B1E06940B32DE0256020690128BD
:1027600029D1002606EB860007EB800000F089FBEC
:10277000761C072EF6D323488C3000F082FB2148CC
:10278000A03000F07EFB1F48B43000F07AFB1D48FB
:10279000C83000F076FB1B48DC3000F072FB1948B3
:1027A0008C3060601430A06005E02068E96AC06A7F
:1027B000884200D82560E06A401CE062E96A012096
:1027C000A26988401043A06101EB810007EB800003
:1027D000291D00F07CFB00F0A7FBE06900280CD06D
:1027E0002068E96AC06A884207D207494FF08050E2
:1027F0000860BFF34F8FBFF36F8FBDE8F08100001B
:1028000050000020F810002004ED00E02DE9F04118
:10281000856B174604460026026C82B1C7B1E0689A
:10282000FDF774FDE168206C091AE16022689142AD
:1028300002D26168081AE060022F16D017E0206803
:10284000A8B9606801F01EF80646002060600EE03E
:10285000A068FDF75BFD216CA0680844A06061687A
:10286000884204D32068A06001E005B16D1E6D1C94
:10287000A5633046BDE8F08110B50446006B00F05A
:1028800067FB2046BDE8104000F062BB0F4840F6F1
:10289000B831420705D0C01D0C4A20F00700821A4B
:1028A000891A0B4A00230144C2E900030839103A8F
:1028B00021F0070111604B600B600B1AC0E9001397
:1028C00093604FF000405360D06070474005002097
:1028D0003C000020144E154CA6F1C8074FF080585C
:1028E000DFF84C9012E000BF00F0FEFAF068C56817
:1028F000281D00F0B3FA2069401E2061E068401EE8
:10290000E06000F011FB2846FFF7B6FFE068002802
:10291000EAD138680128F9D9C9F80080BFF34F8F90
:10292000BFF36F8FF2E70000C011002050000020BD
:1029300004ED00E02DE9F0479A46DDE9098481467F
:102940006FF00303206B03EB82021044089D20F01C
:102950000706700707D0502080F31188BFF34F8F10
:10296000BFF36F8FFEE723180A5C83F834200A5CFC
:1029700012B1401C1028F6D3002784F84370072DAD
:1029800000D30625E562C4E91157201D00F084FA42
:1029900004F1180000F080FA2461C5F107006462B8
:1029A000A061E76484F8507052464946304600F012
:1029B0000FF92060B8F1000F01D0C8F80040BDE861
:1029C000F087000030B5114900E011460A688242E4
:1029D000FBD34B685C18844203D1406818444860BC
:1029E000084643681C18944209D1084C103C2468DE
:1029F000A24209D052681A4442600A681268026012
:102A0000814200D0086030BD0460F9E73C0000203E
:102A100010B5044600F068FAA06B28B15FF000041E
:102A200000F082FA204610BD0124F9E7064841680B
:102A3000096829B14168C968C96849680163704774
:102A40004FF0FF31FAE700005000002008484068CE
:102A5000401C4FF0500080F3118804D0BFF34F8F1B
:102A6000BFF36F8FFEE7BFF34F8FBFF36F8FFEE7AC
:102A7000440000202DE9F041044600F035FA94F9B5
:102A8000455004F1240609E0606A48B1304600F080
:102A90008FFF08B100F0CAFA6D1E6DB2002DF3DC95
:102AA0004FF0FF3684F8456000F03EFA00F01CFA63
:102AB00094F9445004F1100709E0206948B1384600
:102AC00000F076FF08B100F0B1FA6D1E6DB2002D76
:102AD000F3DC84F84460BDE8F04100F025BA000062
:102AE0002DE9F0410546002700F046FB314E3068E5
:102AF00008B9FFF7CBFEF06805424BD1C5B30835E6
:102B000068070ED005F00700C0F10800054468070B
:102B100007D0502080F31188BFF34F8FBFF36F8F22
:102B2000FEE72DB37068854234D822481030014644
:102B30000C6801E020460C466168A94202D2216877
:102B40000029F7D131688C4224D0076821680160E0
:102B500060680837411B10290FD96019420708D057
:102B6000502080F31188BFF34F8FBFF36F8FFEE7C4
:102B700010E041606560FFF725FF61687068401AEA
:102B80007060B268904200D2B060F06801430020EB
:102B9000C4E9000100F046FF780707D0502080F319
:102BA0001188BFF34F8FBFF36F8FFEE73846BDE844
:102BB000F08100002C0000200449086818B1086862
:102BC000826C521C8264086870470000500000202C
:102BD00010B5031F4FF080741C601B1F21F0010112
:102BE0001960191F044B0B6014390A60091F6FF03C
:102BF000020244380A6010BD4D2A000830B5574C17
:102C0000C7B0002208212046FDF74BFD40F6B8353D
:102C10002846FDF774FC012208212046FDF741FDFE
:102C20002846FDF76CFC14224D4941A8FDF76EFBC8
:102C30004CA11822D1E90001CDE93D014BA1D1E918
:102C40000001CDE93F014BA126A8FDF75FFB4FA096
:102C50003AAB07C883E8070014224FA130A8FDF75C
:102C600055FB52A32CAC0FCB84E80F00142253A1C8
:102C700035A8FDF74BFB98216846FDF760FB0A235A
:102C800007223DA95248FEF798FD0A23962269467D
:102C90004F48FEF71DFD98216846FDF750FB0A23BB
:102CA00005223FA94A48FEF788FD0A239622694675
:102CB0004748FEF70DFD98216846FDF740FB0A23C3
:102CC000152226A94248FEF778FD0A239622694676
:102CD0003F48FEF7FDFC98216846FDF730FB0A23CC
:102CE0000F222CA93A48FEF768FD0A23962269466E
:102CF0003748FEF7EDFC98216846FDF720FB0A23D4
:102D0000112235A93248FEF758FD0A23962269465A
:102D10002F48FEF7DDFC98216846FDF710FB0A23DB
:102D20000C223AA92A48FEF748FD0A239622694652
:102D30002748FEF7CDFC98216846FDF700FB0A23E3
:102D4000142230A92248FEF738FD0A23962269464C
:102D50001F48FEF7BDFC47B030BD0000000400482E
:102D6000203C0008415426460D0A000041540D0A3B
:102D70000000000041542B43534D503D31372C315E
:102D800036372C302C300D0A0000000041542B4304
:102D90004D47463D310D0A0041542B434E4D493DB0
:102DA000312C322C302C302C300D0A0041542B4366
:102DB000474E535057523D310D0A000041542B43AA
:102DC000474E535345513D524D430D0A00000000FC
:102DD0009400002010B5C8211B48FDF7B0FA1B4C29
:102DE0004FF0FF31E06800F0B7FB17494FF47A73FA
:102DF000C822A1F55270FEF76BFC00231A46194653
:102E0000E06800F0F9FA12A10F48FDF7AFFA28B90F
:102E100010A10D48FDF7AAFA002814D00CA10A4809
:102E2000FDF7A4FA0C4C08B1012206E009A10648FE
:102E3000FDF79CFA002806D000222046BDE810408D
:102E40000821FDF72EBC10BDDC030020000000208F
:102E50004F6E00004F66660000040048D0E9013262
:102E600001699A60D0E901235A604A68824201D11F
:102E700082684A60002202610868401E0860086893
:102E8000704700F108014FF0FF32C0E90112C16044
:102E9000016100210160704700210161704730B578
:102EA0000B685A1C02D000F1080202E0026904E03B
:102EB0002246546825689D42FAD953684B60996050
:102EC0008A60516008610168491C016030BD426838
:102ED0004A6093688B6093685960916008610168EB
:102EE000491C016070470000502080F31188BFF337
:102EF0004F8FBFF36F8F0A494868401C4860012814
:102F00000CD10848006810F0FF0F07D0502080F364
:102F10001188BFF34F8FBFF36F8FFEE7704700003C
:102F20004400002004ED00E00849486828B1401E34
:102F3000486001D180F311887047502080F31188D8
:102F4000BFF34F8FBFF36F8FFEE7000044000020F8
:102F500070B5002827D0144DA0F108046168E86816
:102F6000014207D1502080F31188BFF34F8FBFF388
:102F70006F8FFEE722683AB1502080F31188BFF3CB
:102F80004F8FBFF36F8FFEE78143616000F0F4F86D
:102F900060686968084468602046FFF713FDBDE873
:102FA000704000F03FBD70BD2C0000204FF0E020CD
:102FB00000210161816105494FF47A720968B1FB12
:102FC000F2F1491E4161072101617047280000208C
:102FD00010B5020014D00F48806B38B1502080F338
:102FE0001188BFF34F8FBFF36F8FFEE700F0C4F877
:102FF00000211046FFF76AFB00F014FD002807D1FE
:1030000005494FF080500860BFF34F8FBFF36F8FBB
:1030100010BD00005000002004ED00E002498A6A63
:103020000260496941607047500000200149012059
:10303000486270475000002010B50C4650B1094955
:1030400009681831FFF72BFF2046BDE81040012129
:10305000FFF73CBB502080F31188BFF34F8FBFF3C5
:103060006F8FFEE75000002070B504004BD0A26CBB
:10307000A2B1606C884200D30146E06A884242D027
:10308000012A40D1204D2A6894420FD1502080F36C
:103090001188BFF34F8FBFF36F8FFEE7502080F38F
:1030A0001188BFF34F8FBFF36F8FFEE7E162A26914
:1030B000002A02DBC1F10701A161144E00EB800080
:1030C000616906EB800081421DD1201DFFF7C6FE1D
:1030D000012150B9E06A00EB800256F8222022B9A3
:1030E000AA6901FA00F08243AA61E06AAA698140F4
:1030F0001143A96100EB800006EB8000211DBDE8B3
:103100007040FFF7E4BE70BD50000020F8100020B2
:103110001CB515480024CDE900402346802213A1A8
:10312000144800F00FFB012809D0401C1AD1502090
:1031300080F31188BFF34F8FBFF36F8FFEE75020EE
:1031400080F31188BFF34F8FBFF36F8F06484FF0A6
:10315000FF31343801630121C1614461BDE81C4085
:1031600000F040B81CBD00008400002049444C45DC
:1031700000000000D52800080248816B491C8163CB
:1031800070470000500000201448816B11B10121EC
:1031900041627047002141628169B1FA81F1C1F158
:1031A0001F0101EB81020E4951F822306BB101EB96
:1031B000820101F108034A6852684A609A4201D1CB
:1031C00052684A60D16801607047502080F31188CE
:1031D000BFF34F8FBFF36F8FFEE70000500000205A
:1031E000F81000201CB537480168374A914207D1D2
:1031F000502080F31188BFF34F8FBFF36F8FFEE72E
:1032000000683149491E884207D1502080F3118857
:10321000BFF34F8FBFF36F8FFEE72C490878019003
:10322000FF20087008788DF800009DF800009DF8D8
:10323000002000F0F000904207D0502080F3118869
:10324000BFF34F8FBFF36F8FFEE79DF80000204B59
:1032500000F0500018700720986005E09DF80020ED
:1032600052008DF80020401E9DF800201206F5D473
:103270009860032807D0502080F31188BFF34F8F48
:10328000BFF36F8FFEE74FF44070986001980870AD
:103290000C482030016841F470010160016841F080
:1032A00070410160FFF782FE00205860FCF79CFF30
:1032B0000848016841F040410160FCF781FF0020AF
:1032C0001CBD000000ED00E071C20F4100E400E011
:1032D0004400002034EF00E010B5502080F3118846
:1032E000BFF34F8FBFF36F8F00F068FA18B1044936
:1032F0004FF080500860002080F3118810BD00005E
:1033000004ED00E010B502460021012000F00CF8A9
:10331000041E07D00021416001600B460A46C160CF
:1033200000F06AF8204610BD70B50E46050013D0B7
:10333000D6B105FB06F04830FFF7D2FB040009D0F8
:1033400004F1480120468EB10160C0E90F56012109
:1033500000F00EF8204670BD502080F31188BFF3B6
:103360004F8FBFF36F8FFEE70020E4E70060ECE7CC
:1033700070B50D46040025D0FFF7B6FDD4E90F2047
:10338000216802FB001161600021A1632168A16036
:103390000A46D4E90F01401E00FB0121E1602146ED
:1033A0004FF0FF3001F8440F487004F110008DB168
:1033B000FFF767FD04F12400FFF763FDFFF7B4FD9D
:1033C000012070BD502080F31188BFF34F8FBFF3F1
:1033D0006F8FFEE721690029F0D000F0E9FA00289C
:1033E000ECD004494FF080500860BFF34F8FBFF31B
:1033F0006F8FE3E704ED00E02DE9FF4782B01D4643
:103400008A464FF00008040003D0BAF1000F08D03C
:1034100011E0502080F31188BFF34F8FBFF36F8FFF
:10342000FEE7206C38B1502080F31188BFF34F8F36
:10343000BFF36F8FFEE7022D0AD1E06B012807D0A2
:10344000502080F31188BFF34F8FBFF36F8FFEE7DB
:1034500000F0A6F93F4F4FF000094FF0805648B9F1
:10346000049838B1502080F31188BFF34F8FBFF319
:103470006F8FFEE7FFF738FDA06BE16B884207D343
:10348000022D05D00498D0B1B8F1000F1AD01EE07B
:103490002A4651462046FFF7B9F9616A19B104F18D
:1034A000240000F085FA20B13E60BFF34F8FBFF3D8
:1034B0006F8FFFF739FD012006B0BDE8F087FFF7F9
:1034C00033FD22E06846FFF7A9FD4FF00108FFF742
:1034D0002BFDFFF751FEFFF707FD94F94400401C58
:1034E00001D184F8449094F94500401C01D184F83E
:1034F0004590FFF719FD04A9684600F0E9F830B1DE
:103500002046FFF7B7FA00F08DFA0020D4E7FFF766
:10351000EBFCA06BE16B884213D1FFF705FD04F1D2
:1035200010000499FFF788FD2046FFF7A3FA00F08A
:1035300079FA00289ED13E60BFF34F8FBFF36F8FA3
:1035400098E7FFF7F1FC2046FFF794FA00F06AFADB
:1035500090E7000004ED00E02DE9F343002683B07E
:103560000400354609D0206C78B1502080F31188D2
:10357000BFF34F8FBFF36F8FFEE7502080F31188AA
:10358000BFF34F8FBFF36F8FFEE700F009F9DFF84D
:103590003C814FF000094FF0805748B9049838B18A
:1035A000502080F31188BFF34F8FBFF36F8FFEE77A
:1035B000FFF79AFCA06BC8B1401EA063206810B949
:1035C000FFF7FAFA6060206950B104F1100000F0D2
:1035D000EFF928B1C8F80070BFF34F8FBFF36F8FBA
:1035E000FFF7A2FC012005B0BDE8F083049808B104
:1035F00066B10FE03DB1502080F31188BFF34F8FCB
:10360000BFF36F8FFEE7FFF78FFC5DE06846FFF7C3
:1036100005FD0126FFF788FCFFF7AEFDFFF764FC10
:1036200094F94400401C01D184F8449094F9450079
:10363000401C01D184F84590FFF776FC04A9684648
:1036400000F046F80028204612D0FFF713FA00F0E9
:10365000E9F92046FFF7DCF90028A9D09DB3FFF770
:1036600043FC606A50B3206B0068C0F1070126E09C
:10367000FFF7CEF9E0B1206838B9FFF735FC606894
:1036800000F04CF90546FFF74FFC04F124000499C3
:10369000FFF7D2FC2046FFF7EDF900F0C3F9002850
:1036A00086D1C8F80070BFF34F8FBFF36F8F7FE7ED
:1036B0002046FFF7DFF900F0B5F979E700216068EF
:1036C000FFF7D2FC9FE7FFE700208CE704ED00E066
:1036D0002DE9F0410C46050011D0C4B1FFF704FC00
:1036E000174B5A696E682068911B471C17D02F68CA
:1036F0009B6A9F4219D0964217D8012410E05020AF
:1037000080F31188BFF34F8FBFF36F8FFEE7502018
:1037100080F31188BFF34F8FBFF36F8FFEE7002454
:10372000FFF702FC2046BDE8F081884205D9401A27
:1037300020602846FFF772FCF1E700202060DCE7FC
:10374000500000202DE9FF5F8346DDE90E87994692
:1037500016468A469000FFF7C3F905001AD0542098
:10376000FFF7BEF9040012D025630021CDE9024124
:10377000CDE900874B46324651465846FFF7DAF806
:103780002046FEF7DBFF012004B000F006B8284613
:10379000FFF7DEFB4FF0FF30F6E730BCBDE8C09F1F
:1037A0000548C16919B1806B18B10020704701202C
:1037B0007047022070470000500000202DE9F041C2
:1037C0002E4C0027A06B40B1206A401C2062606A2A
:1037D00000B101273846BDE8F0816669761C666154
:1037E00013D16068006838B1502080F31188BFF3AE
:1037F0004F8FBFF36F8FFEE76068A1686160A060C4
:10380000A06A401CA062FFF711F9206BDFF87080FE
:10381000864209D36068006880B16068C068C56886
:10382000686886420DD220632068C06A00EB800180
:1038300058F821000128CAD90127C8E74FF0FF3006
:10384000F1E7281DFFF70AFBA86A18B105F1180077
:10385000FFF704FBE86A0121A26981401143A161DD
:1038600000EB800108EB8100291DFFF730FBE86ABF
:103870002168C96A8842CDD30127CBE750000020D8
:10388000F810002070B504004FF0000140D0214D29
:103890002868844207D0502080F31188BFF34F8FEF
:1038A000BFF36F8FFEE7A06C38B1401EA064636C5D
:1038B000E26A9A422CD040B12AE0502080F311886D
:1038C000BFF34F8FBFF36F8FFEE7201DFFF7C6FAE0
:1038D000114A012150B9E06A00EB800352F823300D
:1038E00023B9AB6901FA00F08343AB61606CE0621D
:1038F000C0F10700A061E06AAB6981401943A9618A
:1039000000EB800002EB8000211DFFF7E0FA0121AF
:10391000084670BD50000020F810002070B504006B
:103920004FF0000038D0204DE16A2A68D26A9142F7
:1039300033D2A069002804DB2868C06AC0F1070000
:10394000A0611A4E01EB8101606906EB810188429A
:103950001ED1201DFFF782FA012150B9E06A00EB69
:10396000800256F8222022B9AA6901FA00F08243A7
:10397000AA612868C06AE062AA6981401143A9610E
:1039800000EB800006EB8000211DFFF7A0FA02E0AB
:103990002868C06AE062012070BD616C2A68D26A42
:1039A0009142F8D370BD000050000020F8100020B4
:1039B0002DE9F041C068C468ACB104F118000746B5
:1039C000FFF74CFA154DA86B0126A0B139461448F3
:1039D000FFF77DFAE06A2968C96A88421CD901208C
:1039E0006E62BDE8F081502080F31188BFF34F8FE5
:1039F000BFF36F8FFEE7201DFFF730FAE16AAA6977
:103A000006FA01F01043A86101EB81000449B439C2
:103A100001EB8000211DDBE70020E2E750000020E1
:103A2000AC1100202DE9F0472C4D00242746A86B4F
:103A300038B1FFF759FAA86B401EA863A86B40B1D4
:103A400046E0502080F31188BFF34F8FBFF36F8F94
:103A5000FEE72969224E0120D1B3A6F1B4098046C0
:103A60003068E8B1F068C46804F11800FFF7F6F9AF
:103A7000201DFFF7F3F9E06AAA6908FA00F1114383
:103A8000A96100EB800109EB8100211DFFF71FFAFE
:103A9000E06A2968C96A8842E2D3C5F82480DFE772
:103AA0000CB1FEF7C3FF2C6A44B14646FFF786FE11
:103AB00000B16E62641EF9D100202862686A38B1D4
:103AC0000849012738070860BFF34F8FBFF36F8F96
:103AD000FFF72AFA3846BDE8F087000050000020C2
:103AE000AC11002004ED00E041540D0A0041542BBC
:103AF000434F50533F0D0A0041542B534150425203
:103B00003D332C312C22434F4E54595045222C2208
:103B100047505253220D0A0041542B5341504252F8
:103B20003D332C312C2241504E222C22696E74657B
:103B3000726E6574220D0A0041542B53415042525B
:103B40003D332C312C2255534552222C2254656C86
:103B5000656E6F72220D0A0041542B534150425240
:103B60003D332C312C22505744222C2254656C6555
:103B70006E6F72220D0A0041542B53415042523D48
:103B8000312C310D0A0041542B53415042523D30EB
:103B90002C310D0A0041542B53415042523D322CDE
:103BA000310D0A0041542B48545450494E49540D8C
:103BB0000A0041542B48545450504152413D224335
:103BC0004944222C310D0A0041542B485454504191
:103BD0004354494F4E3D300D0A0041542B48545434
:103BE00050524541440D0A0041542B4854545054FE
:103BF00045524D0D0A000000E03C0008BD1A0008C7
:103C00000300000000000000800000007C3C000871
:103C1000CD1A000802000000000000008000000033
:103C2000496E697469616C697A696E672E2E2E0A15
:103C3000000000000000000000000000010203047A
:103C400006070809A0860100400D0300801A06003F
:103C500000350C0040420F0080841E0000093D002A
:103C600000127A000024F40000366E010048E801DA
:103C7000006CDC0200000000010203046D79546155
:103C8000736B30320000000041542B4854545050A4
:103C90004152413D2255524C222C22687474703A94
:103CA0002F2F7A616661726F6261642E30303077D7
:103CB0006562686F73746170702E636F6D2F7365CA
:103CC0006E736F72312E7068703F6170693D586A13
:103CD000557954394B30262674656D703D000000CF
:103CE00064656661756C745461736B00000000005C
:103CF000103D00080000002094000000FA1E00089B
:103D0000A43D000894000020541500000A1F00087C
:103D1000EC3C000800000000000000000000000073
:103D20000000000000000000000000000000000093
:103D3000000000000000000000093D00000000003D
:103D40000000000000000000000000000000000073
:103D50000000000000000000AAAAAAAA00000000BB
:103D60000000000000000000000000000000000053
:103D70000000000000000000000000000000000043
:103D80000000000000000000000000000000000033
:103D90000000000000000000000000000000000023
:043DA000000000001F
:040000050800018D61
:00000001FF
